{
  "contractName": "MultiSig",
  "abi": [
    {
      "inputs": [
        {
          "internalType": "address[]",
          "name": "_owners",
          "type": "address[]"
        }
      ],
      "stateMutability": "nonpayable",
      "type": "constructor"
    },
    {
      "inputs": [
        {
          "internalType": "address",
          "name": "",
          "type": "address"
        },
        {
          "internalType": "uint256",
          "name": "",
          "type": "uint256"
        }
      ],
      "name": "approvals",
      "outputs": [
        {
          "internalType": "bool",
          "name": "",
          "type": "bool"
        }
      ],
      "stateMutability": "view",
      "type": "function",
      "constant": true
    },
    {
      "inputs": [],
      "name": "transactionIndex",
      "outputs": [
        {
          "internalType": "uint256",
          "name": "",
          "type": "uint256"
        }
      ],
      "stateMutability": "view",
      "type": "function",
      "constant": true
    },
    {
      "inputs": [
        {
          "internalType": "uint256",
          "name": "",
          "type": "uint256"
        }
      ],
      "name": "transactions",
      "outputs": [
        {
          "internalType": "uint256",
          "name": "id",
          "type": "uint256"
        },
        {
          "internalType": "address payable",
          "name": "to",
          "type": "address"
        },
        {
          "internalType": "uint256",
          "name": "amount",
          "type": "uint256"
        },
        {
          "internalType": "bool",
          "name": "isSent",
          "type": "bool"
        },
        {
          "internalType": "uint256",
          "name": "approvals",
          "type": "uint256"
        }
      ],
      "stateMutability": "view",
      "type": "function",
      "constant": true
    },
    {
      "inputs": [
        {
          "internalType": "address payable",
          "name": "_to",
          "type": "address"
        },
        {
          "internalType": "uint256",
          "name": "_amount",
          "type": "uint256"
        }
      ],
      "name": "createTransaction",
      "outputs": [],
      "stateMutability": "payable",
      "type": "function",
      "payable": true
    },
    {
      "inputs": [
        {
          "internalType": "uint256",
          "name": "_id",
          "type": "uint256"
        }
      ],
      "name": "sendTransaction",
      "outputs": [],
      "stateMutability": "nonpayable",
      "type": "function"
    },
    {
      "inputs": [
        {
          "internalType": "uint256",
          "name": "_id",
          "type": "uint256"
        }
      ],
      "name": "signTransaction",
      "outputs": [],
      "stateMutability": "nonpayable",
      "type": "function"
    },
    {
      "inputs": [
        {
          "internalType": "address",
          "name": "_newOwner",
          "type": "address"
        }
      ],
      "name": "assignOwner",
      "outputs": [],
      "stateMutability": "nonpayable",
      "type": "function"
    },
    {
      "inputs": [],
      "name": "getOwners",
      "outputs": [
        {
          "internalType": "address[]",
          "name": "",
          "type": "address[]"
        }
      ],
      "stateMutability": "view",
      "type": "function",
      "constant": true
    },
    {
      "inputs": [
        {
          "internalType": "address",
          "name": "addr",
          "type": "address"
        },
        {
          "internalType": "uint256",
          "name": "id",
          "type": "uint256"
        }
      ],
      "name": "getApprovals",
      "outputs": [
        {
          "internalType": "bool",
          "name": "",
          "type": "bool"
        }
      ],
      "stateMutability": "view",
      "type": "function",
      "constant": true
    }
  ],
  "bytecode": "0x6080604052600080553480156200001557600080fd5b50604051620018593803806200185983398181016040528101906200003b9190620002f7565b8060019080519060200190620000539291906200005b565b505062000348565b828054828255906000526020600020908101928215620000d7579160200282015b82811115620000d65782518260006101000a81548173ffffffffffffffffffffffffffffffffffffffff021916908373ffffffffffffffffffffffffffffffffffffffff160217905550916020019190600101906200007c565b5b509050620000e69190620000ea565b5090565b5b8082111562000105576000816000905550600101620000eb565b5090565b6000604051905090565b600080fd5b600080fd5b600080fd5b6000601f19601f8301169050919050565b7f4e487b7100000000000000000000000000000000000000000000000000000000600052604160045260246000fd5b6200016d8262000122565b810181811067ffffffffffffffff821117156200018f576200018e62000133565b5b80604052505050565b6000620001a462000109565b9050620001b2828262000162565b919050565b600067ffffffffffffffff821115620001d557620001d462000133565b5b602082029050602081019050919050565b600080fd5b600073ffffffffffffffffffffffffffffffffffffffff82169050919050565b60006200021882620001eb565b9050919050565b6200022a816200020b565b81146200023657600080fd5b50565b6000815190506200024a816200021f565b92915050565b6000620002676200026184620001b7565b62000198565b905080838252602082019050602084028301858111156200028d576200028c620001e6565b5b835b81811015620002ba5780620002a5888262000239565b8452602084019350506020810190506200028f565b5050509392505050565b600082601f830112620002dc57620002db6200011d565b5b8151620002ee84826020860162000250565b91505092915050565b60006020828403121562000310576200030f62000113565b5b600082015167ffffffffffffffff81111562000331576200033062000118565b5b6200033f84828501620002c4565b91505092915050565b61150180620003586000396000f3fe6080604052600436106100865760003560e01c80637f12caaa116100595780637f12caaa146101365780639ace38c21461015f578063a0e67e2b146101a0578063b8220f6a146101cb578063ffabc673146101f657610086565b80631d47f8c11461008b5780631e7f8f0f146100c85780635d9ec210146100e45780636fe3cc321461010d575b600080fd5b34801561009757600080fd5b506100b260048036038101906100ad9190610df9565b610233565b6040516100bf9190610e54565b60405180910390f35b6100e260048036038101906100dd9190610ead565b61029b565b005b3480156100f057600080fd5b5061010b60048036038101906101069190610eed565b61056b565b005b34801561011957600080fd5b50610134600480360381019061012f9190610eed565b610837565b005b34801561014257600080fd5b5061015d60048036038101906101589190610f1a565b610af3565b005b34801561016b57600080fd5b5061018660048036038101906101819190610eed565b610c3a565b604051610197959493929190610f65565b60405180910390f35b3480156101ac57600080fd5b506101b5610c9d565b6040516101c29190611076565b60405180910390f35b3480156101d757600080fd5b506101e0610d2b565b6040516101ed9190611098565b60405180910390f35b34801561020257600080fd5b5061021d60048036038101906102189190610df9565b610d31565b60405161022a9190610e54565b60405180910390f35b6000600260008473ffffffffffffffffffffffffffffffffffffffff1673ffffffffffffffffffffffffffffffffffffffff168152602001908152602001600020600083815260200190815260200160002060009054906101000a900460ff16905092915050565b6000805b60018054905081101561033a573373ffffffffffffffffffffffffffffffffffffffff16600182815481106102d7576102d66110b3565b5b9060005260206000200160009054906101000a900473ffffffffffffffffffffffffffffffffffffffff1673ffffffffffffffffffffffffffffffffffffffff161415610327576001915061033a565b808061033290611111565b91505061029f565b508061037b576040517f08c379a0000000000000000000000000000000000000000000000000000000008152600401610372906111b7565b60405180910390fd5b600073ffffffffffffffffffffffffffffffffffffffff168373ffffffffffffffffffffffffffffffffffffffff1614156103eb576040517f08c379a00000000000000000000000000000000000000000000000000000000081526004016103e290611223565b60405180910390fd5b6000821161042e576040517f08c379a00000000000000000000000000000000000000000000000000000000081526004016104259061128f565b60405180910390fd5b348210610470576040517f08c379a0000000000000000000000000000000000000000000000000000000008152600401610467906112fb565b60405180910390fd5b6040518060a0016040528060005481526020018473ffffffffffffffffffffffffffffffffffffffff168152602001838152602001600015158152602001600081525060036000805481526020019081526020016000206000820151816000015560208201518160010160006101000a81548173ffffffffffffffffffffffffffffffffffffffff021916908373ffffffffffffffffffffffffffffffffffffffff1602179055506040820151816002015560608201518160030160006101000a81548160ff0219169083151502179055506080820151816004015590505060008081548092919061056190611111565b9190505550505050565b6000805b60018054905081101561060a573373ffffffffffffffffffffffffffffffffffffffff16600182815481106105a7576105a66110b3565b5b9060005260206000200160009054906101000a900473ffffffffffffffffffffffffffffffffffffffff1673ffffffffffffffffffffffffffffffffffffffff1614156105f7576001915061060a565b808061060290611111565b91505061056f565b508061064b576040517f08c379a0000000000000000000000000000000000000000000000000000000008152600401610642906111b7565b60405180910390fd5b600054821061068f576040517f08c379a000000000000000000000000000000000000000000000000000000000815260040161068690611367565b60405180910390fd5b60001515600260003373ffffffffffffffffffffffffffffffffffffffff1673ffffffffffffffffffffffffffffffffffffffff168152602001908152602001600020600084815260200190815260200160002060009054906101000a900460ff16151514610733576040517f08c379a000000000000000000000000000000000000000000000000000000000815260040161072a906113d3565b60405180910390fd5b60001515600260003373ffffffffffffffffffffffffffffffffffffffff1673ffffffffffffffffffffffffffffffffffffffff168152602001908152602001600020600084815260200190815260200160002060009054906101000a900460ff1615151415610833576001600260003373ffffffffffffffffffffffffffffffffffffffff1673ffffffffffffffffffffffffffffffffffffffff168152602001908152602001600020600084815260200190815260200160002060006101000a81548160ff02191690831515021790555060036000838152602001908152602001600020600401600081548092919061082d90611111565b91905055505b5050565b6000805b6001805490508110156108d6573373ffffffffffffffffffffffffffffffffffffffff1660018281548110610873576108726110b3565b5b9060005260206000200160009054906101000a900473ffffffffffffffffffffffffffffffffffffffff1673ffffffffffffffffffffffffffffffffffffffff1614156108c357600191506108d6565b80806108ce90611111565b91505061083b565b5080610917576040517f08c379a000000000000000000000000000000000000000000000000000000000815260040161090e906111b7565b60405180910390fd5b81600015156003600083815260200190815260200160002060030160009054906101000a900460ff16151514610982576040517f08c379a00000000000000000000000000000000000000000000000000000000081526004016109799061143f565b60405180910390fd5b82600180549050600360008381526020019081526020016000206004015410156109e1576040517f08c379a00000000000000000000000000000000000000000000000000000000081526004016109d8906114ab565b60405180910390fd5b6000548410610a25576040517f08c379a0000000000000000000000000000000000000000000000000000000008152600401610a1c90611367565b60405180910390fd5b60006003600086815260200190815260200160002060010160009054906101000a900473ffffffffffffffffffffffffffffffffffffffff1690508073ffffffffffffffffffffffffffffffffffffffff166108fc60036000888152602001908152602001600020600201549081150290604051600060405180830381858888f19350505050158015610abc573d6000803e3d6000fd5b5060016003600087815260200190815260200160002060030160006101000a81548160ff0219169083151502179055505050505050565b6000805b600180549050811015610b92573373ffffffffffffffffffffffffffffffffffffffff1660018281548110610b2f57610b2e6110b3565b5b9060005260206000200160009054906101000a900473ffffffffffffffffffffffffffffffffffffffff1673ffffffffffffffffffffffffffffffffffffffff161415610b7f5760019150610b92565b8080610b8a90611111565b915050610af7565b5080610bd3576040517f08c379a0000000000000000000000000000000000000000000000000000000008152600401610bca906111b7565b60405180910390fd5b6001829080600181540180825580915050600190039060005260206000200160009091909190916101000a81548173ffffffffffffffffffffffffffffffffffffffff021916908373ffffffffffffffffffffffffffffffffffffffff1602179055505050565b60036020528060005260406000206000915090508060000154908060010160009054906101000a900473ffffffffffffffffffffffffffffffffffffffff16908060020154908060030160009054906101000a900460ff16908060040154905085565b60606001805480602002602001604051908101604052809291908181526020018280548015610d2157602002820191906000526020600020905b8160009054906101000a900473ffffffffffffffffffffffffffffffffffffffff1673ffffffffffffffffffffffffffffffffffffffff1681526020019060010190808311610cd7575b5050505050905090565b60005481565b60026020528160005260406000206020528060005260406000206000915091509054906101000a900460ff1681565b600080fd5b600073ffffffffffffffffffffffffffffffffffffffff82169050919050565b6000610d9082610d65565b9050919050565b610da081610d85565b8114610dab57600080fd5b50565b600081359050610dbd81610d97565b92915050565b6000819050919050565b610dd681610dc3565b8114610de157600080fd5b50565b600081359050610df381610dcd565b92915050565b60008060408385031215610e1057610e0f610d60565b5b6000610e1e85828601610dae565b9250506020610e2f85828601610de4565b9150509250929050565b60008115159050919050565b610e4e81610e39565b82525050565b6000602082019050610e696000830184610e45565b92915050565b6000610e7a82610d65565b9050919050565b610e8a81610e6f565b8114610e9557600080fd5b50565b600081359050610ea781610e81565b92915050565b60008060408385031215610ec457610ec3610d60565b5b6000610ed285828601610e98565b9250506020610ee385828601610de4565b9150509250929050565b600060208284031215610f0357610f02610d60565b5b6000610f1184828501610de4565b91505092915050565b600060208284031215610f3057610f2f610d60565b5b6000610f3e84828501610dae565b91505092915050565b610f5081610dc3565b82525050565b610f5f81610e6f565b82525050565b600060a082019050610f7a6000830188610f47565b610f876020830187610f56565b610f946040830186610f47565b610fa16060830185610e45565b610fae6080830184610f47565b9695505050505050565b600081519050919050565b600082825260208201905092915050565b6000819050602082019050919050565b610fed81610d85565b82525050565b6000610fff8383610fe4565b60208301905092915050565b6000602082019050919050565b600061102382610fb8565b61102d8185610fc3565b935061103883610fd4565b8060005b838110156110695781516110508882610ff3565b975061105b8361100b565b92505060018101905061103c565b5085935050505092915050565b600060208201905081810360008301526110908184611018565b905092915050565b60006020820190506110ad6000830184610f47565b92915050565b7f4e487b7100000000000000000000000000000000000000000000000000000000600052603260045260246000fd5b7f4e487b7100000000000000000000000000000000000000000000000000000000600052601160045260246000fd5b600061111c82610dc3565b91507fffffffffffffffffffffffffffffffffffffffffffffffffffffffffffffffff82141561114f5761114e6110e2565b5b600182019050919050565b600082825260208201905092915050565b7f596f7520617265206e6f7420746865204f776e65720000000000000000000000600082015250565b60006111a160158361115a565b91506111ac8261116b565b602082019050919050565b600060208201905081810360008301526111d081611194565b9050919050565b7f496e76616c696420616464726573730000000000000000000000000000000000600082015250565b600061120d600f8361115a565b9150611218826111d7565b602082019050919050565b6000602082019050818103600083015261123c81611200565b9050919050565b7f496e76616c696420616d6f756e74000000000000000000000000000000000000600082015250565b6000611279600e8361115a565b915061128482611243565b602082019050919050565b600060208201905081810360008301526112a88161126c565b9050919050565b7f416d6f756e742073686f756c64206265206c6573730000000000000000000000600082015250565b60006112e560158361115a565b91506112f0826112af565b602082019050919050565b60006020820190508181036000830152611314816112d8565b9050919050565b7f496e76616c6964207472616e73616374696f6e20696400000000000000000000600082015250565b600061135160168361115a565b915061135c8261131b565b602082019050919050565b6000602082019050818103600083015261138081611344565b9050919050565b7f416c7265616479205369676e656420627920596f750000000000000000000000600082015250565b60006113bd60158361115a565b91506113c882611387565b602082019050919050565b600060208201905081810360008301526113ec816113b0565b9050919050565b7f5472616e73616374696f6e20697320616c72656164792053656e740000000000600082015250565b6000611429601b8361115a565b9150611434826113f3565b602082019050919050565b600060208201905081810360008301526114588161141c565b9050919050565b7f5472616e73616374696f6e20526571756972657320417070726f76616c730000600082015250565b6000611495601e8361115a565b91506114a08261145f565b602082019050919050565b600060208201905081810360008301526114c481611488565b905091905056fea2646970667358221220841cb85234babb3bcb71f410020179f8f95bd64002a3d42ffe2b682710cf2d2264736f6c634300080b0033",
  "immutableReferences": {},
  "source": "// SPDX-License-Identifier: MIT\r\npragma solidity >=0.4.22 <0.9.0;\r\n\r\ncontract MultiSig {\r\n    struct Transaction {\r\n        uint256 id;\r\n        address payable to;\r\n        uint256 amount;\r\n        bool isSent;\r\n        uint256 approvals;\r\n    }\r\n\r\n    uint256 public transactionIndex = 0;\r\n\r\n    address[] private owners;\r\n\r\n    mapping(address => mapping(uint256 => bool)) public approvals; //Approvals Object\r\n    mapping(uint256 => Transaction) public transactions; //Transaction Object\r\n\r\n    /**\r\n    const owner1=\"0x12\";\r\n    const owner2=\"0x13\";\r\n\r\n    Txn1={\r\n        id: 1\r\n    }\r\n    Txn2={\r\n        id: 2\r\n    }\r\n\r\n    const approvals={\r\n        \"0x12\":{\r\n            \"1\":true,\r\n            \"2\": false\r\n        },\r\n        \"0x13\":{\r\n            \"1\":true,\r\n            \"2\": true\r\n        },\r\n    }\r\n    **/\r\n\r\n    constructor(address[] memory _owners) {\r\n        // for (uint256 i = 0; i < _owners.length; i++) {\r\n        //     owners.push(_owners[i]);\r\n        // }\r\n        owners = _owners;\r\n    }\r\n\r\n    modifier authenticate() {\r\n        bool isAllowed = false;\r\n\r\n        for (uint256 i = 0; i < owners.length; i++) {\r\n            if (owners[i] == msg.sender) {\r\n                isAllowed = true;\r\n                break;\r\n            }\r\n        }\r\n\r\n        require(isAllowed, \"You are not the Owner\");\r\n        _;\r\n    }\r\n\r\n    modifier checkSentOrNot(uint256 _id) {\r\n        require(\r\n            transactions[_id].isSent == false,\r\n            \"Transaction is already Sent\"\r\n        );\r\n        _;\r\n    }\r\n\r\n    modifier checkApprovals(uint256 _id) {\r\n        require(\r\n            transactions[_id].approvals >= owners.length,\r\n            \"Transaction Requires Approvals\"\r\n        );\r\n        _;\r\n    }\r\n\r\n    function createTransaction(address payable _to, uint256 _amount)\r\n        external\r\n        payable\r\n        authenticate\r\n    {\r\n        require(_to != address(0), \"Invalid address\");\r\n        require(_amount > 0, \"Invalid amount\");\r\n        require(_amount < msg.value, \"Amount should be less\");\r\n\r\n        transactions[transactionIndex] = Transaction(\r\n            transactionIndex,\r\n            _to,\r\n            _amount,\r\n            false,\r\n            0\r\n        );\r\n        transactionIndex++;\r\n    }\r\n\r\n    function sendTransaction(uint256 _id)\r\n        external\r\n        authenticate\r\n        checkSentOrNot(_id)\r\n        checkApprovals(_id)\r\n    {\r\n        require(_id < transactionIndex, \"Invalid transaction id\");\r\n        address payable to = transactions[_id].to;\r\n        to.transfer(transactions[_id].amount);\r\n\r\n        transactions[_id].isSent = true;\r\n    }\r\n\r\n    function signTransaction(uint256 _id) external authenticate {\r\n        require(_id < transactionIndex, \"Invalid transaction id\");\r\n        require(approvals[msg.sender][_id] == false, \"Already Signed by You\");\r\n\r\n        if (approvals[msg.sender][_id] == false) {\r\n            approvals[msg.sender][_id] = true;\r\n            transactions[_id].approvals++;\r\n        }\r\n    }\r\n\r\n    function assignOwner(address _newOwner) external authenticate {\r\n        owners.push(_newOwner);\r\n    }\r\n\r\n    function getOwners() external view returns (address[] memory) {\r\n        return owners;\r\n    }\r\n\r\n    function getApprovals(address addr, uint256 id)\r\n        external\r\n        view\r\n        returns (bool)\r\n    {\r\n        return approvals[addr][id];\r\n    }\r\n}\r\n",
  "sourcePath": "C:\\Users\\Suman\\Desktop\\Blockchain\\MultiSignerWallet\\MultiSignerWallet\\contracts\\MultiSig.sol",
  "compiler": {
    "name": "solc",
    "version": "0.8.11+commit.d7f03943.Emscripten.clang"
  },
  "schemaVersion": "3.4.5",
  "updatedAt": "2022-03-25T09:32:46.486Z",
  "networkType": "ethereum",
  "devdoc": {
    "kind": "dev",
    "methods": {},
    "version": 1
  },
  "userdoc": {
    "kind": "user",
    "methods": {
      "constructor": {
        "notice": "const owner1=\"0x12\"; const owner2=\"0x13\"; Txn1={ id: 1 } Txn2={ id: 2 } const approvals={ \"0x12\":{ \"1\":true, \"2\": false }, \"0x13\":{ \"1\":true, \"2\": true }, }*"
      }
    },
    "version": 1
  }
}